{
  "_format": "hh-sol-artifact-1",
  "contractName": "ElectionContract",
  "sourceName": "contracts/ElectionContract.sol",
  "abi": [
    {
      "inputs": [
        {
          "internalType": "string",
          "name": "pvn",
          "type": "string"
        },
        {
          "internalType": "string",
          "name": "voter_id",
          "type": "string"
        },
        {
          "internalType": "string",
          "name": "candidate",
          "type": "string"
        },
        {
          "internalType": "bool",
          "name": "isVerified",
          "type": "bool"
        }
      ],
      "name": "castVote",
      "outputs": [],
      "stateMutability": "nonpayable",
      "type": "function"
    },
    {
      "inputs": [],
      "name": "deleteElection",
      "outputs": [],
      "stateMutability": "nonpayable",
      "type": "function"
    },
    {
      "inputs": [],
      "name": "getAllVotes",
      "outputs": [
        {
          "internalType": "string[]",
          "name": "",
          "type": "string[]"
        }
      ],
      "stateMutability": "view",
      "type": "function"
    },
    {
      "inputs": [
        {
          "internalType": "string",
          "name": "voter_id",
          "type": "string"
        }
      ],
      "name": "getYourVote",
      "outputs": [
        {
          "components": [
            {
              "internalType": "string",
              "name": "pvn",
              "type": "string"
            },
            {
              "internalType": "string",
              "name": "voter_id",
              "type": "string"
            },
            {
              "internalType": "address",
              "name": "meta_address",
              "type": "address"
            },
            {
              "internalType": "string",
              "name": "candidate_id",
              "type": "string"
            },
            {
              "internalType": "bool",
              "name": "isValue",
              "type": "bool"
            }
          ],
          "internalType": "struct ElectionContract.vote",
          "name": "",
          "type": "tuple"
        }
      ],
      "stateMutability": "view",
      "type": "function"
    },
    {
      "inputs": [
        {
          "internalType": "string",
          "name": "voter_id",
          "type": "string"
        }
      ],
      "name": "verfiyUser",
      "outputs": [],
      "stateMutability": "nonpayable",
      "type": "function"
    }
  ],
  "bytecode": "0x6080604052600160005534801561001557600080fd5b50610fc6806100256000396000f3fe608060405234801561001057600080fd5b50600436106100575760003560e01c806333be940d1461005c57806381f7180114610066578063851b6ef214610082578063a40689e1146100a0578063a6a2678a146100d0575b600080fd5b6100646100ec565b005b610080600480360381019061007b9190610912565b610111565b005b61008a610150565b6040516100979190610c40565b60405180910390f35b6100ba60048036038101906100b59190610912565b610229565b6040516100c79190610c62565b60405180910390f35b6100ea60048036038101906100e59190610953565b61049a565b005b600160006100fa9190610726565b60016000546101099190610d4f565b600081905550565b60028190806001815401808255809150506001900390600052602060002001600090919091909150908051906020019061014c929190610747565b5050565b60606001805480602002602001604051908101604052809291908181526020016000905b8282101561022057838290600052602060002001805461019390610e2f565b80601f01602080910402602001604051908101604052809291908181526020018280546101bf90610e2f565b801561020c5780601f106101e15761010080835404028352916020019161020c565b820191906000526020600020905b8154815290600101906020018083116101ef57829003601f168201915b505050505081526020019060010190610174565b50505050905090565b6102316107cd565b6003600080548152602001908152602001600020826040516102539190610c12565b90815260200160405180910390206040518060a001604052908160008201805461027c90610e2f565b80601f01602080910402602001604051908101604052809291908181526020018280546102a890610e2f565b80156102f55780601f106102ca576101008083540402835291602001916102f5565b820191906000526020600020905b8154815290600101906020018083116102d857829003601f168201915b5050505050815260200160018201805461030e90610e2f565b80601f016020809104026020016040519081016040528092919081815260200182805461033a90610e2f565b80156103875780601f1061035c57610100808354040283529160200191610387565b820191906000526020600020905b81548152906001019060200180831161036a57829003601f168201915b505050505081526020016002820160009054906101000a900473ffffffffffffffffffffffffffffffffffffffff1673ffffffffffffffffffffffffffffffffffffffff1673ffffffffffffffffffffffffffffffffffffffff1681526020016003820180546103f690610e2f565b80601f016020809104026020016040519081016040528092919081815260200182805461042290610e2f565b801561046f5780601f106104445761010080835404028352916020019161046f565b820191906000526020600020905b81548152906001019060200180831161045257829003601f168201915b505050505081526020016004820160009054906101000a900460ff1615151515815250509050919050565b60005b60028054905081101561071e57836040516020016104bb9190610c12565b604051602081830303815290604052805190602001206002828154811061050b577f4e487b7100000000000000000000000000000000000000000000000000000000600052603260045260246000fd5b906000526020600020016040516020016105259190610c29565b60405160208183030381529060405280519060200120141561070b578161054c5750610720565b60036000805481526020019081526020016000208460405161056e9190610c12565b908152602001604051809103902060040160009054906101000a900460ff16156105985750610720565b6040518060a001604052808681526020018581526020013373ffffffffffffffffffffffffffffffffffffffff168152602001848152602001600115158152506003600080548152602001908152602001600020856040516105fa9190610c12565b90815260200160405180910390206000820151816000019080519060200190610624929190610747565b506020820151816001019080519060200190610641929190610747565b5060408201518160020160006101000a81548173ffffffffffffffffffffffffffffffffffffffff021916908373ffffffffffffffffffffffffffffffffffffffff16021790555060608201518160030190805190602001906106a5929190610747565b5060808201518160040160006101000a81548160ff021916908315150217905550905050600183908060018154018082558091505060019003906000526020600020016000909190919091509080519060200190610704929190610747565b5050610720565b808061071690610e92565b91505061049d565b505b50505050565b50805460008255906000526020600020908101906107449190610814565b50565b82805461075390610e2f565b90600052602060002090601f01602090048101928261077557600085556107bc565b82601f1061078e57805160ff19168380011785556107bc565b828001600101855582156107bc579182015b828111156107bb5782518255916020019190600101906107a0565b5b5090506107c99190610838565b5090565b6040518060a001604052806060815260200160608152602001600073ffffffffffffffffffffffffffffffffffffffff168152602001606081526020016000151581525090565b5b80821115610834576000818161082b9190610855565b50600101610815565b5090565b5b80821115610851576000816000905550600101610839565b5090565b50805461086190610e2f565b6000825580601f106108735750610892565b601f0160209004906000526020600020908101906108919190610838565b5b50565b60006108a86108a384610ca9565b610c84565b9050828152602081018484840111156108c057600080fd5b6108cb848285610ded565b509392505050565b6000813590506108e281610f79565b92915050565b600082601f8301126108f957600080fd5b8135610909848260208601610895565b91505092915050565b60006020828403121561092457600080fd5b600082013567ffffffffffffffff81111561093e57600080fd5b61094a848285016108e8565b91505092915050565b6000806000806080858703121561096957600080fd5b600085013567ffffffffffffffff81111561098357600080fd5b61098f878288016108e8565b945050602085013567ffffffffffffffff8111156109ac57600080fd5b6109b8878288016108e8565b935050604085013567ffffffffffffffff8111156109d557600080fd5b6109e1878288016108e8565b92505060606109f2878288016108d3565b91505092959194509250565b6000610a0a8383610aa5565b905092915050565b610a1b81610da5565b82525050565b6000610a2c82610cff565b610a368185610d22565b935083602082028501610a4885610cda565b8060005b85811015610a845784840389528151610a6585826109fe565b9450610a7083610d15565b925060208a01995050600181019050610a4c565b50829750879550505050505092915050565b610a9f81610db7565b82525050565b6000610ab082610d0a565b610aba8185610d33565b9350610aca818560208601610dfc565b610ad381610f68565b840191505092915050565b6000610ae982610d0a565b610af38185610d44565b9350610b03818560208601610dfc565b80840191505092915050565b60008154610b1c81610e2f565b610b268186610d44565b94506001821660008114610b415760018114610b5257610b85565b60ff19831686528186019350610b85565b610b5b85610cea565b60005b83811015610b7d57815481890152600182019150602081019050610b5e565b838801955050505b50505092915050565b600060a0830160008301518482036000860152610bab8282610aa5565b91505060208301518482036020860152610bc58282610aa5565b9150506040830151610bda6040860182610a12565b5060608301518482036060860152610bf28282610aa5565b9150506080830151610c076080860182610a96565b508091505092915050565b6000610c1e8284610ade565b915081905092915050565b6000610c358284610b0f565b915081905092915050565b60006020820190508181036000830152610c5a8184610a21565b905092915050565b60006020820190508181036000830152610c7c8184610b8e565b905092915050565b6000610c8e610c9f565b9050610c9a8282610e61565b919050565b6000604051905090565b600067ffffffffffffffff821115610cc457610cc3610f39565b5b610ccd82610f68565b9050602081019050919050565b6000819050602082019050919050565b60008190508160005260206000209050919050565b600081519050919050565b600081519050919050565b6000602082019050919050565b600082825260208201905092915050565b600082825260208201905092915050565b600081905092915050565b6000610d5a82610de3565b9150610d6583610de3565b9250827fffffffffffffffffffffffffffffffffffffffffffffffffffffffffffffffff03821115610d9a57610d99610edb565b5b828201905092915050565b6000610db082610dc3565b9050919050565b60008115159050919050565b600073ffffffffffffffffffffffffffffffffffffffff82169050919050565b6000819050919050565b82818337600083830152505050565b60005b83811015610e1a578082015181840152602081019050610dff565b83811115610e29576000848401525b50505050565b60006002820490506001821680610e4757607f821691505b60208210811415610e5b57610e5a610f0a565b5b50919050565b610e6a82610f68565b810181811067ffffffffffffffff82111715610e8957610e88610f39565b5b80604052505050565b6000610e9d82610de3565b91507fffffffffffffffffffffffffffffffffffffffffffffffffffffffffffffffff821415610ed057610ecf610edb565b5b600182019050919050565b7f4e487b7100000000000000000000000000000000000000000000000000000000600052601160045260246000fd5b7f4e487b7100000000000000000000000000000000000000000000000000000000600052602260045260246000fd5b7f4e487b7100000000000000000000000000000000000000000000000000000000600052604160045260246000fd5b6000601f19601f8301169050919050565b610f8281610db7565b8114610f8d57600080fd5b5056fea26469706673582212204572228b6ce2a55b447b18df68b723b3f60c5c14bc61cb6190c60b30480273ec64736f6c63430008040033",
  "linkReferences": {},
  "deployedLinkReferences": {}
}